:020000040800F2
:10000000E00A0020C90100080F110008110E0008C5
:100010000D110008CF020008651200080000000062
:10002000000000000000000000000000FF110008B8
:10003000D102000800000000FD11000801120008B4
:10004000E3010008E3010008E3010008E301000800
:10005000E3010008E3010008E3010008E3010008F0
:10006000E3010008E3010008E3010008E3010008E0
:10007000E3010008E3010008E3010008E3010008D0
:10008000E3010008E3010008E3010008E3010008C0
:10009000E3010008E3010008E3010008E3010008B0
:1000A000E3010008E3010008E3010008E3010008A0
:1000B000E3010008E3010008E3010008E301000890
:1000C000E3010008E3010008E3010008E301000880
:1000D000E3010008E3010008E3010008E301000870
:1000E000E3010008E3010008E301000800F002F862
:1000F00000F05AF80AA090E8000C82448344AAF168
:100100000107DA4501D100F04FF8AFF2090EBAE865
:100110000F0013F0010F18BFFB1A43F0010318473B
:10012000E4110000041200000A444FF0000C10F823
:10013000013B13F0070408BF10F8014B1D1108BF65
:1001400010F8015B641E05D010F8016B641E01F805
:10015000016BF9D113F0080F1EBF10F8014BAD1C55
:100160000C1B09D16D1E58BF01F801CBFAD505E073
:1001700014F8016B01F8016B6D1EF9D59142D6D3CD
:10018000704700000023002400250026103A28BFF5
:1001900078C1FBD8520728BF30C148BF0B607047F9
:1001A0001FB51FBD10B510BD00F058F81146FFF780
:1001B000F7FF01F083F800F076F803B4FFF7F2FFE1
:1001C00003BC00F07DF8000009488047094800475B
:1001D000FEE7FEE7FEE7FEE7FEE7FEE7FEE7FEE7F7
:1001E000FEE7FEE704480549054A064B7047000054
:1001F00063120008ED000008E0040020E00A00207F
:10020000E0060020E00600204FF0000200B5134693
:1002100094469646203922BFA0E80C50A0E80C5026
:10022000B1F12001BFF4F7AF090728BFA0E80C50D7
:1002300048BF0CC05DF804EB890028BF40F8042BD0
:1002400008BF704748BF20F8022B11F0804F18BF3D
:1002500000F8012B7047704770477047754600F0F3
:100260002BF8AE4605006946534620F00700854648
:1002700018B020B5FFF7B6FFBDE820404FF00006EC
:100280004FF000074FF000084FF0000B21F007017E
:10029000AC46ACE8C009ACE8C009ACE8C009ACE8C1
:1002A000C0098D46704710B50446AFF30080204664
:1002B000BDE81040FFF781BF004870478004002070
:1002C00001491820ABBEFEE7260002007047FEE79A
:1002D000704772B6FEE7000070B5044600F0FEF805
:1002E0000546601C02D004480078044400F0F6F88B
:1002F000401BA042FAD370BD1C0400202DE9F84F2A
:10030000DFF8B891002409F1040A0AF1040B23462E
:100310000F270BF1040EC9E00125A5402A40AA428F
:100320007DD1674ED1F804C0ACEB0608B44532D09D
:1003300014DCBCF1030F3AD009DCBCF1000F2AD069
:10034000BCF1010F1CD0BCF1020F31D11DE0BCF19A
:10035000110F17D0BCF1120F2AD119E0B8F5881F80
:1003600019D006DCB8F5803F15D0B8F5801F1FD135
:1003700011E0B8F5001F0ED0B8F5041F18D10AE03F
:10038000CB6815E0CB681B1D12E0CB6808330FE08B
:10039000CB680C330CE08B682BB1012B4FF00803BA
:1003A00003D0456104E0042302E0056100E000237E
:1003B000FF2A01D8064601E000F104064FEA840551
:1003C00001D9A5F12005D6F8008007FA05FC28EA36
:1003D0000C0803FA05F548EA0508C6F800804D68E0
:1003E000ED0062D5374DAE6946F00106AE61AD69EC
:1003F00024F0030605F001050095334D06EB050CCE
:10040000DCF80850A607360F07FA06F825EA0805B3
:10041000DFF8B880404503D14FF0000817E044E012
:10042000DFF8AC80404502D14FF001080FE0DFF863
:10043000A480404502D14FF0020808E0DFF8988020
:10044000404502D14FF0030801E04FF0040808FADC
:1004500006F848EA0508CCF808804D68D9F800602D
:10046000ED034D4601D5164300E096432E604D68DE
:10047000DAF80060AD03554601D5164300E0964317
:100480002E604D68DBF80060ED025D4601D5164335
:1004900000E096432E604D68DEF80060AD027546C0
:1004A00001D5164300E096432E60641C0D682A4671
:1004B000E5407FF431AFBDE8F88F00000004014053
:1004C000000011100010024000000140000801402F
:1004D000000C0140001001400014014001488068F8
:1004E000704700001C04002070B5040025D094F86B
:1004F0003D00002520B984F83C50204600F050F91A
:10050000242084F83D002068016821F00101016089
:100510002068016841F4004101602068016821F40D
:100520000041016000F08AFA4D4A6168914201D8A9
:100530004C4900E04C49884201D2012070BD4B4932
:100540002368B0FBF1F15E6826F03F060E435E6063
:100550006368934206D94FF4967359434FF47A7304
:10056000B1FBF3F12368491C1E6A26F03F063143B4
:1005700019626168914210D84900401EB0FBF1F247
:10058000521CC2F30B02042A01D2042022E0B0FB69
:10059000F1F0401CC0F30B001CE0A268F2B301EBC9
:1005A000C10303EB0116431EB3FBF6F35B1C43F4DC
:1005B00080431B0549D092B301EBC10202EB01114C
:1005C000401EB0FBF1F0401CC0F30B0040F4804033
:1005D00040F400402168CA694CF6FF739A43104307
:1005E000C861D4E9071001432068026822F0C00204
:1005F00011430160D4E9030101432068826848F295
:10060000FF339A4311438160D4E90501084321680F
:10061000CA6822F0FF021043C86001E00EE016E055
:100620002068016841F0010101602564202084F800
:100630003D00256384F83E50002070BD01EB41066B
:10064000431EB3FBF6F35B1CB3E70120C2E701EBEB
:100650004101401EB0FBF1F0401CC0F30B00B7E7B6
:10066000A086010080841E0000093D0040420F006A
:100670002DE9FF4F83B09A46DDE911979346044672
:10068000DDF84080FFF72AFF054694F83D0020285A
:100690007FD11923012240492046009500F04AFCF1
:1006A000002876D194F83C00012872D0012084F80B
:1006B0003C0020680168C90703D1016841F00101CD
:1006C00001602068016821F400610160212084F844
:1006D0003D00402084F83E0000262664C4F82480B3
:1006E000A4F82A90608D20852C48E062CDE9007541
:1006F00053465A462046049900F0A2FB70B930E0F8
:100700002A463946204600F094FC58B1206C042853
:1007100004D12068016841F400710160012007B034
:10072000BDE8F08F606A216800780861606A401C4B
:100730006062218D491E89B22185628D521E6285BB
:1007400022685369DB435B070BD469B10078106101
:10075000606A401C6062208D401E2085608D401EB6
:100760006085208D0028CBD12A463946204600F0EE
:10077000BBFB0028CAD154F83D0B016841F400715D
:100780000160202004F81E09E67766770020C6E79E
:10079000FFE70220C3E70000020010000000FFFF97
:1007A00010B586B00021009101910291039100687B
:1007B0000F4988421AD10F4CA06940F00800A0618F
:1007C000A069694600F008000490C0200090122043
:1007D0000190032003900848FFF790FDE06940F482
:1007E0000010E061E06900F40010049006B010BD54
:1007F0000054004000100240000C01400248816893
:1008000002781144816070471C040020074810B52D
:10081000016841F010010160032000F067F80F202B
:1008200000F006F800F024F8002010BD002002407F
:1008300070B50D4D04464FF47A712878B1FBF0F095
:100840000A490968B1FBF0F000F0CEFA48B9102C63
:1008500007D200222146501E00F028F800206C60CC
:1008600070BD012070BD00001C0400202804002081
:100870000C4808B5816941F001018161816901F08D
:1008800001010091C16941F08051C161C06900F06E
:10089000805000900448416821F0E06141F080718F
:1008A000416008BD0010024000000140F0B40E4B52
:1008B0001B680C46C3F30223C3F10705042D00D9BE
:1008C0000425191D072901D2002300E0DB1E0126A3
:1008D00006FA05F1491E214099409E40761E1640B9
:1008E0003143F0BC00F0DABC0CED00E0064900F04A
:1008F000070208684FF6FF03184040EA0220034A47
:1009000010430860704700000CED00E00000FA059D
:100910002DE9F0470F46050061D0434E306800F0E6
:100920000700B84209D2306820F007003843306031
:10093000306800F00700B84251D128683B4C81076D
:1009400012D5400703D5606840F4E0606060287805
:10095000000703D5606840F4605060606068A96873
:1009600020F0F000084360602878C00728D068684D
:10097000012810D02168022810D0890700292EDA1A
:10098000616821F0030101436160FFF7A7FD804624
:1009900041F288390DE021688903EFE78901EDE72D
:1009A000FFF79CFDA0EB0801494502D90320BDE8F3
:1009B000F0876068696800F00C00B0EB810FEFD140
:1009C000306800F00700B8420BD9306820F007000B
:1009D00038433060306800F00700B84201D0012091
:1009E000E5E72878400705D56068E96820F4E0600D
:1009F000084360602878000706D56068296920F4FC
:100A0000605040EAC100606000F028F86168084A60
:100A1000C1F30311515CC8400649086006480068EC
:100A2000FFF706FF0020C2E700200240001002404E
:100A3000EC12000828040020200400200448054986
:100A400000684968044AC1F30221515CC8407047FC
:100A50002804002000100240FC12000812A185B0FA
:100A60000FC98DE80F0014A0144A00680490516863
:100A7000134801F00C03042B10D0082B0ED1C1F346
:100A80008343C9031DF803000AD5516804AAC1F3C2
:100A90004041515C0A4A5043B0FBF1F005B0704749
:100AA00008494843FAE7000002030405060708095D
:100AB0000A0B0C0D0E0F1010010200000010024076
:100AC00000127A0000093D002DE9F84F040070D0B3
:100AD0002078C04DC00749D06868C0F38100012864
:100AE00007D06868C0F38100022809D16868C00394
:100AF00006D52868800339D560680028E7D035E03E
:100B00006068B0F5803F0BD010B1B0F5A02F11D0C8
:100B1000286820F480302860286820F4802002E0D3
:100B2000286840F480302860606890B1FFF7D6FCF8
:100B300006460AE0286840F480202860F0E700BFFD
:100B4000FFF7CCFC801B642873D828688003F7D596
:100B50000CE0FFF7C3FC064605E000BFFFF7BEFC54
:100B6000801B6428F0D828688003F7D420789A4E38
:100B700080074FF001094FF0000839D5686810F080
:100B80000C0F07D06868C0F38100022809D168689B
:100B9000C00306D42868800714D52069012808D12D
:100BA00010E02069B0B1C6F80090FFF797FC074647
:100BB00005E00AE1FFF792FCC01B0228C4D82868B0
:100BC0008007F7D52868616920F0F80040EAC10085
:100BD00028600DE0C6F80080FFF780FC074604E0BF
:100BE000FFF77CFCC01B022823D828688007F7D4B5
:100BF000207800072CD57948A169D9B1C0F80090B8
:100C0000FFF76CFC074604E0FFF768FCC01B0228F6
:100C10000FD8686A8007F7D571484FF4FA51006819
:100C2000B0FBF1F0009000BF0098411E0091FAD295
:100C30000EE080E0C0F80080FFF750FC074604E0BB
:100C4000FFF74CFCC01B022875D8686A8007F7D4F0
:100C50002078400760D5E8690027C00008D4E8691B
:100C600040F08050E861E869012700F08050009072
:100C70005C480168C90513D40168834641F480715A
:100C80000160FFF72BFC824606E000BFFFF726FC61
:100C9000A0EB0A0064284ED8DBF80000C005F5D5AB
:100CA000E06801280AD008B1052813D0286A20F08E
:100CB00001002862286A20F0040002E0286A40F05F
:100CC00001002862E06841F2883B98B1FFF706FC1A
:100CD00082460BE0286A40F004002862EEE700BF7D
:100CE000FFF7FCFBA0EB0A0159455AD8286A800798
:100CF000F6D50CE0FFF7F2FB824605E0FFF7EEFBCE
:100D0000A0EB0A0159454CD8286A8007F6D41FB1D8
:100D1000E86920F08050E861E06988B36968C1F350
:100D20008101022944D00228C6F8608004D0FFF770
:100D3000D5FB044638E034E0FFF7D0FB074604E07B
:100D4000FFF7CCFBC01B02282BD828688001F7D402
:100D5000206AB0F5803F05D16868A16820F40030B2
:100D600008436860D4E908010843696821F47411F4
:100D700008436860C6F86090FFF7B0FB044606E0E1
:100D800025E000BFFFF7AAFB001B022809D828684E
:100D90008001F7D51BE000BFFFF7A0FB001B022876
:100DA00002D90320BDE8F88F28688001F4D40EE052
:100DB0000128F7D06868226A00F48031914204D19A
:100DC000616A00F47010884201D00120EAE7002037
:100DD000E8E7000000100240000042428004424266
:100DE000280400200070004010B5401EB0F1807F44
:100DF00001D3012010BD4FF0E02460610F21601786
:100E000000F04CFA0020A06107202061002010BDF6
:100E1000FEE701684A69D24352050FD46FF480623D
:100E20004A61002140F8301F202242738173026919
:100E300042F00402026101730120704700207047F4
:100E40002DE9F843044600680D46DDE9089701687E
:100E50009846164641F4807101604B4600224FF0DF
:100E600001112046009700F065F848B1206800683D
:100E7000C00502D54FF4007020640320BDE8F8835C
:100E8000216805F0FE0008613B464A4615492046A8
:100E900000F084F888B920684169806900903A467A
:100EA0004946204600F0C5F848B1206C042804D11A
:100EB0002068016841F4007101600120DEE7F5B2AD
:100EC000B8F1010F09D02168300A08613A46494655
:100ED000204600F0AEF80028E7D120680561002028
:100EE000CCE700000200010070B516460D4604462E
:100EF0000DE02046FFF78DFF08B1012070BD681C92
:100F000005D0FFF7EBFA801BA84207D835B120685F
:100F10004069C0434007ECD4002070BD002044F875
:100F2000300F20216173A073216941F020012161FC
:100F30002073E2E72DE9F0471E4690460D46044631
:100F4000C1F30747DDF8209008E0701C06D0FFF7DA
:100F5000C5FAA0EB0900B0420FD876B12068012F86
:100F600018D0806925EA00000004000C14D000218C
:100F70004145EAD00020BDE8F087002044F8300F5A
:100F800020216173A073216941F020012161207348
:100F90000120F0E74069E5E70121E9E72DE9F047A5
:100FA0009A4691460E46044600254FF02008C1F3AC
:100FB000074725E020684069C043400514D42068F5
:100FC000016841F40071016021686FF4806048613C
:100FD000256384F83D8084F83E50206C40F0040086
:100FE000206484F83C501FE0B9F1FF3F08D0FFF7C0
:100FF00075FAA0EB0A0149450CD8B9F1000F09D0E8
:101000002068012F13D0806926EA00000004000C3C
:101010000BD0CFE744F8305F84F80D80A5732069CA
:1010200040F02000206125730120BDE8F087406971
:10103000EAE770B516460D4604460DE02046FFF778
:10104000E8FE08B1012070BD681C05D0FFF746FA24
:10105000801BA84207D835B120684069C04300060C
:10106000ECD4002070BD002044F8300F20216173C3
:10107000A073216941F0200121612073E2E70000A3
:10108000114808B5816941F010018161816901F061
:1010900010010091816941F020018161816901F0B5
:1010A00020010091816941F004018161816901F0B1
:1010B00004010091816941F008018161806900F0BB
:1010C0000800009008BD0000001002400D4810B557
:1010D0000B4901600C49416000214FF4804281605E
:1010E000C0E9031241618161C1610162FFF7FCF94E
:1010F000002803D0BDE81040FFF7EBB810BD00009A
:10110000005400402C040020801A0600FEE7FEE791
:1011100070B5002404F1B000C0B200F04BF800201C
:1011200000F048F8102000F045F80025002000F0FD
:1011300053F86D1CEDB2802DF8D3641CE4B2082C7A
:10114000E8D370BD2DE9F047984617468246002641
:101150000C46DDF8209010E02146504600F019F8CA
:10116000554606E019F80600761C00F035F86D1CAF
:10117000EDB2BD42F6D3641CE4B24445ECD3BDE805
:10118000F08710B5C820FFF7A7F8BDE8104000F0C1
:101190006BB810B50446B031C8B200F00BF810209F
:1011A00040EA141000F006F804F00F00BDE810400B
:1011B000AFF3008001B584B001214FF4807204A820
:1011C0008DE807000B46002278210248FFF750FA0D
:1011D00005B000BD2C04002001B584B001214FF4FE
:1011E000807204A88DE807000B464022782102484F
:1011F000FFF73EFA05B000BD2C0400207047704791
:10120000FFF7FCBA30B58FB028216846FEF7FCFF27
:1012100014210AA8FEF7F8FF01210804CDE9001007
:101220000024029402250491CDE907504FF4E01008
:1012300009906846FFF748FC08B172B6FEE70F2038
:10124000CDE90A054FF48060CDE90C4002210AA8DF
:101250000E94FFF75DFB002801D072B6FEE70FB0D9
:1012600030BD7047FEE70000FEB50024094F4FF483
:10127000807501263819CDE9000601230022782166
:1012800002950548FFF7F4F9641CE4B21B2CF1D376
:10129000FEBD0000000400202C0400200907090EF8
:1012A000002804DB00F1E02080F80014704700F013
:1012B0000F0000F1E02080F8141D704708B5FFF71B
:1012C000A5FAFFF79FFFFFF7DBFEFFF7FFFEFFF733
:1012D00058FFFFF71DFF04480021009008238022DB
:1012E0000846FFF72FFFFEE7000000200000000087
:1012F00000000000010203040607080900000000C6
:101300000102030424130008000000202C04000044
:1013100028010008941400082C040020B4060000E2
:101320008401000810110CC81838707070F0E0E0EB
:10133000E0C0C0C08080580B808080C0E0E0F0F04A
:10134000F0F8011CFCFEFF01633F0102510D160283
:10135000081060C02E0101070F9F69091301000CDE
:1013600056DFAFFEDAB8F8F8F0E0F98022038B80A0
:10137000FD702EF7F3E3F8FFF818089F3FAFCFFF9B
:10138000FFEF0A290E29010357FCC03B3E7F60880E
:10139000177FFF9F87AFAFFFF3F7F731694F7F7D6F
:1013A000CF7FBFBF7E0D1F9B16FFFFF0C080065092
:1013B000021A1E1A141B073F5E300AF2EF5FC107C4
:1013C000090901011A40033280180C02201F1F0F67
:1013D0001F1F3F1F3F7FA51FF18C11410202160105
:1013E0004D180880F0E8D8D4FF9F8224FEA4FD2287
:1013F000081310F027E0E0C030080A1A20892A8478
:1014000092198E2F8001E9FAE1410D0947F8281D54
:101410000D113FFF9F1F0F0F830301395FDF477FD0
:10142000797AFEFEFDFDFCFCFDF0F1F0015009F8BB
:10143000F8FCFFFFDF3E0419F7397D2A108D014AC1
:1014400015200501012F02059120A0600EC019038F
:10145000070F0F1F3F3F9F0F47030361616020602D
:10146000E0E0C2E8F0C0C00540013EF8FE12AE1058
:101470000C1040B081FFA1A6A83FC8D3380ED5807C
:10148000D805D9F1DA12D8308D14AFE782101324C1
:04149000F400000064
:04000005080000ED02
:00000001FF
